{
  "_format": "hh-sol-artifact-1",
  "contractName": "CertificateVerification",
  "sourceName": "contracts/certification-verification.sol",
  "abi": [
    {
      "inputs": [
        {
          "internalType": "string",
          "name": "",
          "type": "string"
        }
      ],
      "name": "certificates",
      "outputs": [
        {
          "internalType": "string",
          "name": "studentName",
          "type": "string"
        },
        {
          "internalType": "string",
          "name": "ipfsHash",
          "type": "string"
        },
        {
          "internalType": "uint256",
          "name": "dateOfIssue",
          "type": "uint256"
        },
        {
          "internalType": "bool",
          "name": "isValid",
          "type": "bool"
        },
        {
          "internalType": "address",
          "name": "studentWallet",
          "type": "address"
        }
      ],
      "stateMutability": "view",
      "type": "function"
    },
    {
      "inputs": [
        {
          "internalType": "string",
          "name": "_certId",
          "type": "string"
        }
      ],
      "name": "getCertificateDetails",
      "outputs": [
        {
          "internalType": "string",
          "name": "",
          "type": "string"
        },
        {
          "internalType": "string",
          "name": "",
          "type": "string"
        },
        {
          "internalType": "uint256",
          "name": "",
          "type": "uint256"
        },
        {
          "internalType": "bool",
          "name": "",
          "type": "bool"
        },
        {
          "internalType": "address",
          "name": "",
          "type": "address"
        }
      ],
      "stateMutability": "view",
      "type": "function"
    },
    {
      "inputs": [
        {
          "internalType": "address",
          "name": "_wallet",
          "type": "address"
        }
      ],
      "name": "getCertificatesByWallet",
      "outputs": [
        {
          "internalType": "string[]",
          "name": "",
          "type": "string[]"
        }
      ],
      "stateMutability": "view",
      "type": "function"
    },
    {
      "inputs": [
        {
          "internalType": "string",
          "name": "_certId",
          "type": "string"
        },
        {
          "internalType": "string",
          "name": "_studentName",
          "type": "string"
        },
        {
          "internalType": "string",
          "name": "_ipfsHash",
          "type": "string"
        },
        {
          "internalType": "uint256",
          "name": "_dateOfIssue",
          "type": "uint256"
        },
        {
          "internalType": "address",
          "name": "_studentWallet",
          "type": "address"
        }
      ],
      "name": "issueCertificate",
      "outputs": [],
      "stateMutability": "nonpayable",
      "type": "function"
    },
    {
      "inputs": [
        {
          "internalType": "string",
          "name": "_certId",
          "type": "string"
        },
        {
          "internalType": "string",
          "name": "_studentName",
          "type": "string"
        }
      ],
      "name": "verifyCertificate",
      "outputs": [
        {
          "internalType": "bool",
          "name": "",
          "type": "bool"
        }
      ],
      "stateMutability": "view",
      "type": "function"
    }
  ],
  "bytecode": "0x608060405234801561001057600080fd5b506112c4806100206000396000f3fe608060405234801561001057600080fd5b50600436106100575760003560e01c806303e796401461005c5780632751f71b146100785780638f2b91ea146100a8578063a350650f146100dc578063fa433b361461010c575b600080fd5b61007660048036038101906100719190610b3e565b610140565b005b610092600480360381019061008d9190610c0d565b6102b7565b60405161009f9190610ca0565b60405180910390f35b6100c260048036038101906100bd9190610cbb565b6104af565b6040516100d3959493929190610da1565b60405180910390f35b6100f660048036038101906100f19190610e02565b610638565b6040516101039190610f3b565b60405180910390f35b61012660048036038101906101219190610cbb565b610750565b604051610137959493929190610da1565b60405180910390f35b6040518060a001604052808581526020018481526020018381526020016001151581526020018273ffffffffffffffffffffffffffffffffffffffff168152506000866040516101909190610f99565b908152602001604051809103902060008201518160000190816101b391906111bc565b5060208201518160010190816101c991906111bc565b506040820151816002015560608201518160030160006101000a81548160ff02191690831515021790555060808201518160030160016101000a81548173ffffffffffffffffffffffffffffffffffffffff021916908373ffffffffffffffffffffffffffffffffffffffff160217905550905050600160008273ffffffffffffffffffffffffffffffffffffffff1673ffffffffffffffffffffffffffffffffffffffff168152602001908152602001600020859080600181540180825580915050600190039060005260206000200160009091909190915090816102af91906111bc565b505050505050565b6000806000846040516102ca9190610f99565b90815260200160405180910390206040518060a00160405290816000820180546102f390610fdf565b80601f016020809104026020016040519081016040528092919081815260200182805461031f90610fdf565b801561036c5780601f106103415761010080835404028352916020019161036c565b820191906000526020600020905b81548152906001019060200180831161034f57829003601f168201915b5050505050815260200160018201805461038590610fdf565b80601f01602080910402602001604051908101604052809291908181526020018280546103b190610fdf565b80156103fe5780601f106103d3576101008083540402835291602001916103fe565b820191906000526020600020905b8154815290600101906020018083116103e157829003601f168201915b50505050508152602001600282015481526020016003820160009054906101000a900460ff161515151581526020016003820160019054906101000a900473ffffffffffffffffffffffffffffffffffffffff1673ffffffffffffffffffffffffffffffffffffffff1673ffffffffffffffffffffffffffffffffffffffff16815250509050806060015180156104a657508280519060200120816000015180519060200120145b91505092915050565b6000818051602081018201805184825260208301602085012081835280955050505050506000915090508060000180546104e890610fdf565b80601f016020809104026020016040519081016040528092919081815260200182805461051490610fdf565b80156105615780601f1061053657610100808354040283529160200191610561565b820191906000526020600020905b81548152906001019060200180831161054457829003601f168201915b50505050509080600101805461057690610fdf565b80601f01602080910402602001604051908101604052809291908181526020018280546105a290610fdf565b80156105ef5780601f106105c4576101008083540402835291602001916105ef565b820191906000526020600020905b8154815290600101906020018083116105d257829003601f168201915b5050505050908060020154908060030160009054906101000a900460ff16908060030160019054906101000a900473ffffffffffffffffffffffffffffffffffffffff16905085565b6060600160008373ffffffffffffffffffffffffffffffffffffffff1673ffffffffffffffffffffffffffffffffffffffff168152602001908152602001600020805480602002602001604051908101604052809291908181526020016000905b828210156107455783829060005260206000200180546106b890610fdf565b80601f01602080910402602001604051908101604052809291908181526020018280546106e490610fdf565b80156107315780601f1061070657610100808354040283529160200191610731565b820191906000526020600020905b81548152906001019060200180831161071457829003601f168201915b505050505081526020019060010190610699565b505050509050919050565b6060806000806000806000876040516107699190610f99565b90815260200160405180910390206040518060a001604052908160008201805461079290610fdf565b80601f01602080910402602001604051908101604052809291908181526020018280546107be90610fdf565b801561080b5780601f106107e05761010080835404028352916020019161080b565b820191906000526020600020905b8154815290600101906020018083116107ee57829003601f168201915b5050505050815260200160018201805461082490610fdf565b80601f016020809104026020016040519081016040528092919081815260200182805461085090610fdf565b801561089d5780601f106108725761010080835404028352916020019161089d565b820191906000526020600020905b81548152906001019060200180831161088057829003601f168201915b50505050508152602001600282015481526020016003820160009054906101000a900460ff161515151581526020016003820160019054906101000a900473ffffffffffffffffffffffffffffffffffffffff1673ffffffffffffffffffffffffffffffffffffffff1673ffffffffffffffffffffffffffffffffffffffff1681525050905080600001518160200151826040015183606001518460800151955095509550955095505091939590929450565b6000604051905090565b600080fd5b600080fd5b600080fd5b600080fd5b6000601f19601f8301169050919050565b7f4e487b7100000000000000000000000000000000000000000000000000000000600052604160045260246000fd5b6109b78261096e565b810181811067ffffffffffffffff821117156109d6576109d561097f565b5b80604052505050565b60006109e9610950565b90506109f582826109ae565b919050565b600067ffffffffffffffff821115610a1557610a1461097f565b5b610a1e8261096e565b9050602081019050919050565b82818337600083830152505050565b6000610a4d610a48846109fa565b6109df565b905082815260208101848484011115610a6957610a68610969565b5b610a74848285610a2b565b509392505050565b600082601f830112610a9157610a90610964565b5b8135610aa1848260208601610a3a565b91505092915050565b6000819050919050565b610abd81610aaa565b8114610ac857600080fd5b50565b600081359050610ada81610ab4565b92915050565b600073ffffffffffffffffffffffffffffffffffffffff82169050919050565b6000610b0b82610ae0565b9050919050565b610b1b81610b00565b8114610b2657600080fd5b50565b600081359050610b3881610b12565b92915050565b600080600080600060a08688031215610b5a57610b5961095a565b5b600086013567ffffffffffffffff811115610b7857610b7761095f565b5b610b8488828901610a7c565b955050602086013567ffffffffffffffff811115610ba557610ba461095f565b5b610bb188828901610a7c565b945050604086013567ffffffffffffffff811115610bd257610bd161095f565b5b610bde88828901610a7c565b9350506060610bef88828901610acb565b9250506080610c0088828901610b29565b9150509295509295909350565b60008060408385031215610c2457610c2361095a565b5b600083013567ffffffffffffffff811115610c4257610c4161095f565b5b610c4e85828601610a7c565b925050602083013567ffffffffffffffff811115610c6f57610c6e61095f565b5b610c7b85828601610a7c565b9150509250929050565b60008115159050919050565b610c9a81610c85565b82525050565b6000602082019050610cb56000830184610c91565b92915050565b600060208284031215610cd157610cd061095a565b5b600082013567ffffffffffffffff811115610cef57610cee61095f565b5b610cfb84828501610a7c565b91505092915050565b600081519050919050565b600082825260208201905092915050565b60005b83811015610d3e578082015181840152602081019050610d23565b60008484015250505050565b6000610d5582610d04565b610d5f8185610d0f565b9350610d6f818560208601610d20565b610d788161096e565b840191505092915050565b610d8c81610aaa565b82525050565b610d9b81610b00565b82525050565b600060a0820190508181036000830152610dbb8188610d4a565b90508181036020830152610dcf8187610d4a565b9050610dde6040830186610d83565b610deb6060830185610c91565b610df86080830184610d92565b9695505050505050565b600060208284031215610e1857610e1761095a565b5b6000610e2684828501610b29565b91505092915050565b600081519050919050565b600082825260208201905092915050565b6000819050602082019050919050565b600082825260208201905092915050565b6000610e7782610d04565b610e818185610e5b565b9350610e91818560208601610d20565b610e9a8161096e565b840191505092915050565b6000610eb18383610e6c565b905092915050565b6000602082019050919050565b6000610ed182610e2f565b610edb8185610e3a565b935083602082028501610eed85610e4b565b8060005b85811015610f295784840389528151610f0a8582610ea5565b9450610f1583610eb9565b925060208a01995050600181019050610ef1565b50829750879550505050505092915050565b60006020820190508181036000830152610f558184610ec6565b905092915050565b600081905092915050565b6000610f7382610d04565b610f7d8185610f5d565b9350610f8d818560208601610d20565b80840191505092915050565b6000610fa58284610f68565b915081905092915050565b7f4e487b7100000000000000000000000000000000000000000000000000000000600052602260045260246000fd5b60006002820490506001821680610ff757607f821691505b60208210810361100a57611009610fb0565b5b50919050565b60008190508160005260206000209050919050565b60006020601f8301049050919050565b600082821b905092915050565b6000600883026110727fffffffffffffffffffffffffffffffffffffffffffffffffffffffffffffffff82611035565b61107c8683611035565b95508019841693508086168417925050509392505050565b6000819050919050565b60006110b96110b46110af84610aaa565b611094565b610aaa565b9050919050565b6000819050919050565b6110d38361109e565b6110e76110df826110c0565b848454611042565b825550505050565b600090565b6110fc6110ef565b6111078184846110ca565b505050565b5b8181101561112b576111206000826110f4565b60018101905061110d565b5050565b601f8211156111705761114181611010565b61114a84611025565b81016020851015611159578190505b61116d61116585611025565b83018261110c565b50505b505050565b600082821c905092915050565b600061119360001984600802611175565b1980831691505092915050565b60006111ac8383611182565b9150826002028217905092915050565b6111c582610d04565b67ffffffffffffffff8111156111de576111dd61097f565b5b6111e88254610fdf565b6111f382828561112f565b600060209050601f8311600181146112265760008415611214578287015190505b61121e85826111a0565b865550611286565b601f19841661123486611010565b60005b8281101561125c57848901518255600182019150602085019450602081019050611237565b868310156112795784890151611275601f891682611182565b8355505b6001600288020188555050505b50505050505056fea264697066735822122039156fb455eb7b2646153ceb9e6e1e93510b93d79d8d0ea1eec9ffac502a97ab64736f6c63430008140033",
  "linkReferences": {},
  "deployedLinkReferences": {}
}